S01100007374756468656172742E737265633F
S11300000C9442000C945F000C945F000C945F000D
S11300100C945F000C945F000C945F000C945F00E0
S11300200C945F000C945F000C945F000C945F00D0
S11300300C945F000C945F000C9487040C945F0094
S11300400C945F000C945F000C945F000C945F00B0
S11300500C945F000C945F000C945F000C945F00A0
S11300600C945F000C945F002F02310233023502BE
S1130070370239023B02470249024B024D024F024A
S11300805102530211241FBECFEFD8E0DEBFCDBF13
S113009011E0A0E0B1E0E4ECFAE002C005900D92BA
S11300A0A830B107D9F721E0A8E0B1E001C01D9262
S11300B0A431B207E1F70E9443030C9460050C9449
S11300C00000229A8FEF9FEF909387008093860021
S11300D010928B0010928A00E0E8F0E08081806248
S11300E08083808182608083E1E8F0E080818861A0
S11300F080838081816080830895579A3C9A5F9AB7
S11301004498ECE7F0E0808180648083EAE7F0E0E3
S11301108081876880830E9461000895813009F49A
S11301203EC038F0823009F462C0833009F487C0DD
S113013008956623D1F023E035E0EAE8F0E08FE9A2
S11301409FE00197F1F700C00000808191810A9639
S1130150918380832150310991F7EAE8F0E08081AE
S11301609181019691838083089528EA35E0EAE835
S1130170F0E08FE99FE00197F1F700C00000808173
S113018091810A96918380832150310991F7EAE89D
S1130190F0E08081918103969183808308956623A2
S11301A099F029E434E0EAE8F0E08FE99FE0019770
S11301B0F1F700C0000080819181039691838083D0
S11301C02150310991F708952DE636E0EAE8F0E090
S11301D08FE99FE00197F1F700C0000080819181D1
S11301E00296918380832150310991F70895662303
S11301F099F023E736E0EAE8F0E08FE99FE0019721
S1130200F1F700C000008081918102969183808380
S11302102150310991F708952DE636E0EAE8F0E03F
S11302208FE99FE00197F1F700C000008081918180
S11302300296918380832150310991F708956623B2
S113024099F02DE636E0EAE8F0E08FE99FE00197C7
S1130250F1F700C000008081918102969183808330
S11302602150310991F708952DE434E0EAE8F0E0F3
S11302708FE99FE00197F1F700C000008081918130
S11302800396918380832150310991F70895813039
S113029069F120F0823009F451C00895662399F081
S11302A029E434E0EAE8F0E08FE99FE00197F1F710
S11302B000C0000080819181039791838083215045
S11302C0310991F708952DE636E0EAE8F0E08FE988
S11302D09FE00197F1F700C00000808191810297AF
S11302E0918380832150310991F70895662399F011
S11302F023E736E0EAE8F0E08FE99FE00197F1F7C1
S113030000C00000808191810297918380832150F5
S1130310310991F708952DE636E0EAE8F0E08FE937
S11303209FE00197F1F700C000008081918102975E
S1130330918380832150310991F70895662399F0C0
S11303402DE636E0EAE8F0E08FE99FE00197F1F767
S113035000C00000808191810297918380832150A5
S1130360310991F708952DE434E0EAE8F0E08FE9EB
S11303709FE00197F1F700C000008081918103970D
S1130380918380832150310991F70895ECE7F0E0DF
S11303908081807F8083808186608083EAE7F0E0CB
S11303A0808180648083808186FDFDCF20917800E8
S11303B03091790081E02D32314008F480E00895D5
S11303C038983A98399820983B98409A429A419A9A
S11303D0289A439A509A549A539A529A519A569AEE
S11303E0559A589A5C9A5B9A5A9A599A5E9A5D9A67
S11303F008958230B1F028F4882341F0813051F01F
S113040022C08330A9F08430B9F01DC086B1809534
S11304108170089586B182FB992790F981E089273C
S1130420089586B181FB992790F981E08927089581
S113043083B180958170089586B183FB992790F9E3
S113044081E08927089580E0089590E0FC013597C4
S1130450E730F10588F4EC5CFF4F0C9444055898A0
S113046008955C9808955B9808955A98089559984A
S113047008955E9808955D98089590E0FC0135977D
S1130480E730F10588F4E55CFF4F0C944405589A75
S113049008955C9A08955B9A08955A9A0895599A12
S11304A008955E9A08955D9A08958A3009F44E9AE3
S11304B0089584B5826084BD85B5826085BD85B5A7
S11304C0816085BD8CE787BDEEE6F0E080818260C7
S11304D08083089580911101811111C080911001D0
S11304E08E7F8093100181E080931101609113014C
S11304F080E00E948E0086E00E94250208958130EB
S113050079F482E0809311016091130181E00E94EB
S11305108E0086E00E943D0287E00E942502089535
S11305208230A1F483E08093110180911001877FD0
S1130530809310016091130182E00E948E0087E095
S11305400E943D0288E00E9425020895833099F4B8
S113055084E08093110180911001886080931001E0
S11305606091130183E00E948E0088E00E943D02A6
S113057089E00E9425020895809111018430A1F43C
S113058083E08093110180911001877F8093100193
S11305906091130182E00E94470189E00E943D02BC
S11305A088E00E9425020895833079F482E08093E4
S11305B011016091130181E00E94470188E00E94CB
S11305C03D0287E00E9425020895823071F481E0A3
S11305D0809311016091130180E00E94470187E03C
S11305E00E943D0286E00E94250208958091100138
S11305F083FD0FC083E0809311016091130182E0B9
S11306000E948E0087E00E943D0288E00E9425023D
S1130610089584E08093110180911301882399F057
S113062020E736E0EAE8F0E08FE99FE00197F1F790
S113063000C00000808191810496918380832150C1
S1130640310991F719C020E736E0EAE8F0E08FE9D4
S11306509FE00197F1F700C000008081918104962A
S1130660918380832150310991F7EAE8F0E0808199
S1130670918101969183808387E00E943D0289E005
S11306800E942502089580911001816080931001D9
S113069080910E0190910F010E944A0580931301ED
S11306A0109211010E9459020E94E0010E947D00F3
S11306B07894CAEF83E00E94F901882309F486C084
S11306C080E00E94F901882379F18091120180FD74
S11306D032C080910701882321F081508093070163
S11306E02AC08091100182FF0DC08B7F809310017E
S11306F085E00E943D0280911101823079F40E94CC
S1130700F6020CC080911101833040F080911001F9
S113071084608093100185E00E942502809112017B
S113072081608093120107C0809112018E7F8093B3
S11307301201C093070181E00E94F9018823C1F0EE
S11307408091120181FD1BC080910601882321F054
S113075081508093060113C0449A8091100182FF56
S11307600E946A028091120182608093120107C084
S1130770809112018D7F80931201C093060182E063
S11307800E94F9018823D9F08091120182FD1EC0D4
S113079080910501882321F081508093050116C0C2
S11307A080911101823028F08091100182FF0E9413
S11307B0BC028091120184608093120107C0809171
S11307C012018B7F80931201C093050184E00E9483
S11307D0F901882351F18091120183FD2DC080918C
S11307E00401882321F081508093040125C0809165
S11307F01301882351F01092130160E080910E01DF
S113080090910F010E9452050AC081E08093130168
S113081061E080910E0190910F010E945205809138
S1130820120188608093120107C080911201877FB2
S113083080931201C09304010E94C60181113ACF32
S11308408091100181608B7F8093100110921101BF
S113085086E00E943D0287E00E943D0288E00E94FB
S11308603D0289E00E943D0285E00E943D0222CFC4
S1130870809111018430D1F582E08093110180913F
S11308801301882399F020E736E0EAE8F0E08FE9E5
S11308909FE00197F1F700C00000808191810497E7
S11308A0918380832150310991F719C020E736E004
S11308B0EAE8F0E08FE99FE00197F1F700C000005B
S11308C0808191810497918380832150310991F72C
S11308D0EAE8F0E08081918101979183808389E047
S11308E00E943D0287E00E9425020895833071F43E
S11308F082E0809311016091130181E00E9447011D
S113090088E00E943D0287E00E94250208951F921C
S11309100F920FB60F9211242F933F934F935F932F
S11309206F937F938F939F93AF93BF93EF93FF93B3
S11309300E94C60120910C0130910D01283E93E0E4
S1130940390709F59091100190FF0AC0882321F01E
S11309508AE00E94250207C08AE00E94550203C073
S11309608AE00E943D0280911301882321F08BE0EC
S11309700E943D0203C08BE00E94250210920D01EB
S113098010920C0106C02F5F3F4F30930D0120934E
S11309900C018091100182FF52C080910801909156
S11309A00901A0910A01B0910B01409100015091FD
S11309B00101609102017091030184179507A60754
S11309C0B70789F5803C2AED9207A105B10579F4B2
S11309D00E94380480E49FE1A0E0B0E0809300012D
S11309E090930101A0930201B093030113C08034DA
S11309F09F41A105B10571F40E94F60280EC9AEDC5
S1130A00A0E0B0E08093000190930101A093020163
S1130A10B0930301109208011092090110920A0187
S1130A2010920B0120C00196A11DB11D80930801F5
S1130A3090930901A0930A01B0930B0114C0109282
S1130A4008011092090110920A0110920B0180EC26
S1130A509AEDA0E0B0E08093000190930101A0938F
S1130A600201B0930301FF91EF91BF91AF919F9168
S1130A708F917F916F915F914F913F912F910F9043
S1130A800FBE0F901F901895EE0FFF1F0590F49165
S1130A90E02D0994F999FECF92BD81BDF89A99276A
S1130AA080B50895262FF999FECF1FBA92BD81BD56
S1130AB020BD0FB6F894FA9AF99A0FBE01960895DC
S1070AC0F894FFCFD4
S10B0AC4C0DA0000FAFAFAFAA4
S9030000FC
